{
  "address": "0x55E4f6bbD4090499A045d1858b60aca6D7048602",
  "abi": [
    {
      "inputs": [
        {
          "internalType": "uint256",
          "name": "_unlockTime",
          "type": "uint256"
        }
      ],
      "stateMutability": "payable",
      "type": "constructor"
    },
    {
      "anonymous": false,
      "inputs": [
        {
          "indexed": false,
          "internalType": "uint256",
          "name": "amount",
          "type": "uint256"
        },
        {
          "indexed": false,
          "internalType": "address",
          "name": "investor",
          "type": "address"
        }
      ],
      "name": "Deposite",
      "type": "event"
    },
    {
      "anonymous": false,
      "inputs": [
        {
          "indexed": false,
          "internalType": "uint256",
          "name": "amount",
          "type": "uint256"
        },
        {
          "indexed": false,
          "internalType": "uint256",
          "name": "when",
          "type": "uint256"
        }
      ],
      "name": "Withdrawal",
      "type": "event"
    },
    {
      "inputs": [
        {
          "internalType": "address",
          "name": "investor",
          "type": "address"
        }
      ],
      "name": "getShare",
      "outputs": [
        {
          "internalType": "uint256",
          "name": "",
          "type": "uint256"
        }
      ],
      "stateMutability": "view",
      "type": "function"
    },
    {
      "inputs": [],
      "name": "getTotalValueLocked",
      "outputs": [
        {
          "internalType": "uint256",
          "name": "",
          "type": "uint256"
        }
      ],
      "stateMutability": "view",
      "type": "function"
    },
    {
      "inputs": [],
      "name": "owner",
      "outputs": [
        {
          "internalType": "address payable",
          "name": "",
          "type": "address"
        }
      ],
      "stateMutability": "view",
      "type": "function"
    },
    {
      "inputs": [
        {
          "internalType": "address",
          "name": "",
          "type": "address"
        }
      ],
      "name": "shareOf",
      "outputs": [
        {
          "internalType": "uint256",
          "name": "",
          "type": "uint256"
        }
      ],
      "stateMutability": "view",
      "type": "function"
    },
    {
      "inputs": [],
      "name": "unlockTime",
      "outputs": [
        {
          "internalType": "uint256",
          "name": "",
          "type": "uint256"
        }
      ],
      "stateMutability": "view",
      "type": "function"
    },
    {
      "inputs": [],
      "name": "withdraw",
      "outputs": [],
      "stateMutability": "payable",
      "type": "function"
    },
    {
      "stateMutability": "payable",
      "type": "receive"
    }
  ],
  "transactionHash": "0xa25b4121ed562d98da33997078a2622eefc9a72bb17652bfbd99fa83b445654c",
  "args": [
    1681212781
  ],
  "numDeployments": 6,
  "solcInputHash": "9e55569a3f1f76d1a6b034dac6fa8f4f",
  "bytecode": "0x60806040526040516104843803806104848339810160408190526100229161009b565b8042106100815760405162461bcd60e51b815260206004820152602360248201527f556e6c6f636b2074696d652073686f756c6420626520696e207468652066757460448201526275726560e81b606482015260840160405180910390fd5b600055600180546001600160a01b031916331790556100b4565b6000602082840312156100ad57600080fd5b5051919050565b6103c1806100c36000396000f3fe6080604052600436106100595760003560e01c806321e5e2c414610120578063251c1aa3146101605780633ccfd60b146101765780634b3ab9c5146101805780638da5cb5b146101b6578063b26025aa146101ee57600080fd5b3661011b57600034116100bd5760405162461bcd60e51b815260206004820152602160248201527f6465706f73697465206d757374206265206c6172676572207468656e207a65726044820152606f60f81b60648201526084015b60405180910390fd5b33600090815260026020526040812080543492906100dc908490610334565b9091555050604080513481523360208201527fbdc4dc3aa132058e1659954d2fee5bd92e12c4c8f0652f5ce56be6ec59d159de910160405180910390a1005b600080fd5b34801561012c57600080fd5b5061014d61013b36600461035b565b60026020526000908152604090205481565b6040519081526020015b60405180910390f35b34801561016c57600080fd5b5061014d60005481565b61017e610201565b005b34801561018c57600080fd5b5061014d61019b36600461035b565b6001600160a01b031660009081526002602052604090205490565b3480156101c257600080fd5b506001546101d6906001600160a01b031681565b6040516001600160a01b039091168152602001610157565b3480156101fa57600080fd5b504761014d565b60005442101561024c5760405162461bcd60e51b8152602060048201526016602482015275165bdd4818d85b89dd081dda5d1a191c985dc81e595d60521b60448201526064016100b4565b336000908152600260205260409020546102a85760405162461bcd60e51b815260206004820152601a60248201527f43616e74207769746864726177207a65726f2062616c6163652100000000000060448201526064016100b4565b33600090815260026020526040908190205490517fbf2ed60bd5b5965d685680c01195c9514e4382e28e3a5a2d2d5244bf59411b93916102f2914290918252602082015260400190565b60405180910390a13360008181526002602052604080822054905181156108fc0292818181858888f19350505050158015610331573d6000803e3d6000fd5b50565b8082018082111561035557634e487b7160e01b600052601160045260246000fd5b92915050565b60006020828403121561036d57600080fd5b81356001600160a01b038116811461038457600080fd5b939250505056fea264697066735822122079b678ae5a67bad82f582b9fe3a92a83baf9dae7a8c08fbfa894b8d1a2cbcc5a64736f6c63430008110033",
  "devdoc": {
    "kind": "dev",
    "methods": {},
    "version": 1
  },
  "userdoc": {
    "kind": "user",
    "methods": {},
    "version": 1
  },
  "storageLayout": {
    "storage": [
      {
        "astId": 3,
        "contract": "contracts/Vault.sol:Vault",
        "label": "unlockTime",
        "offset": 0,
        "slot": "0",
        "type": "t_uint256"
      },
      {
        "astId": 5,
        "contract": "contracts/Vault.sol:Vault",
        "label": "owner",
        "offset": 0,
        "slot": "1",
        "type": "t_address_payable"
      },
      {
        "astId": 9,
        "contract": "contracts/Vault.sol:Vault",
        "label": "shareOf",
        "offset": 0,
        "slot": "2",
        "type": "t_mapping(t_address,t_uint256)"
      }
    ],
    "types": {
      "t_address": {
        "encoding": "inplace",
        "label": "address",
        "numberOfBytes": "20"
      },
      "t_address_payable": {
        "encoding": "inplace",
        "label": "address payable",
        "numberOfBytes": "20"
      },
      "t_mapping(t_address,t_uint256)": {
        "encoding": "mapping",
        "key": "t_address",
        "label": "mapping(address => uint256)",
        "numberOfBytes": "32",
        "value": "t_uint256"
      },
      "t_uint256": {
        "encoding": "inplace",
        "label": "uint256",
        "numberOfBytes": "32"
      }
    }
  }
}