{
  "_format": "hh-sol-artifact-1",
  "contractName": "Vault",
  "sourceName": "contracts/Vault.sol",
  "abi": [
    {
      "inputs": [
        {
          "internalType": "uint256",
          "name": "_unlockTime",
          "type": "uint256"
        }
      ],
      "stateMutability": "payable",
      "type": "constructor"
    },
    {
      "anonymous": false,
      "inputs": [
        {
          "indexed": false,
          "internalType": "uint256",
          "name": "amount",
          "type": "uint256"
        },
        {
          "indexed": false,
          "internalType": "address",
          "name": "investor",
          "type": "address"
        }
      ],
      "name": "Deposite",
      "type": "event"
    },
    {
      "anonymous": false,
      "inputs": [
        {
          "indexed": false,
          "internalType": "uint256",
          "name": "amount",
          "type": "uint256"
        },
        {
          "indexed": false,
          "internalType": "uint256",
          "name": "when",
          "type": "uint256"
        }
      ],
      "name": "Withdrawal",
      "type": "event"
    },
    {
      "inputs": [
        {
          "internalType": "address",
          "name": "investor",
          "type": "address"
        }
      ],
      "name": "getShare",
      "outputs": [
        {
          "internalType": "uint256",
          "name": "",
          "type": "uint256"
        }
      ],
      "stateMutability": "view",
      "type": "function"
    },
    {
      "inputs": [],
      "name": "getTotalValueLocked",
      "outputs": [
        {
          "internalType": "uint256",
          "name": "",
          "type": "uint256"
        }
      ],
      "stateMutability": "view",
      "type": "function"
    },
    {
      "inputs": [],
      "name": "owner",
      "outputs": [
        {
          "internalType": "address payable",
          "name": "",
          "type": "address"
        }
      ],
      "stateMutability": "view",
      "type": "function"
    },
    {
      "inputs": [
        {
          "internalType": "address",
          "name": "",
          "type": "address"
        }
      ],
      "name": "shareOf",
      "outputs": [
        {
          "internalType": "uint256",
          "name": "",
          "type": "uint256"
        }
      ],
      "stateMutability": "view",
      "type": "function"
    },
    {
      "inputs": [],
      "name": "unlockTime",
      "outputs": [
        {
          "internalType": "uint256",
          "name": "",
          "type": "uint256"
        }
      ],
      "stateMutability": "view",
      "type": "function"
    },
    {
      "inputs": [],
      "name": "withdraw",
      "outputs": [],
      "stateMutability": "nonpayable",
      "type": "function"
    },
    {
      "stateMutability": "payable",
      "type": "receive"
    }
  ],
  "bytecode": "0x60806040526040516104913803806104918339810160408190526100229161009b565b8042106100815760405162461bcd60e51b815260206004820152602360248201527f556e6c6f636b2074696d652073686f756c6420626520696e207468652066757460448201526275726560e81b606482015260840160405180910390fd5b600055600180546001600160a01b031916331790556100b4565b6000602082840312156100ad57600080fd5b5051919050565b6103ce806100c36000396000f3fe6080604052600436106100595760003560e01c806321e5e2c414610120578063251c1aa3146101605780633ccfd60b146101765780634b3ab9c51461018d5780638da5cb5b146101c3578063b26025aa146101fb57600080fd5b3661011b57600034116100bd5760405162461bcd60e51b815260206004820152602160248201527f6465706f73697465206d757374206265206c6172676572207468656e207a65726044820152606f60f81b60648201526084015b60405180910390fd5b33600090815260026020526040812080543492906100dc908490610341565b9091555050604080513481523360208201527fbdc4dc3aa132058e1659954d2fee5bd92e12c4c8f0652f5ce56be6ec59d159de910160405180910390a1005b600080fd5b34801561012c57600080fd5b5061014d61013b366004610368565b60026020526000908152604090205481565b6040519081526020015b60405180910390f35b34801561016c57600080fd5b5061014d60005481565b34801561018257600080fd5b5061018b61020e565b005b34801561019957600080fd5b5061014d6101a8366004610368565b6001600160a01b031660009081526002602052604090205490565b3480156101cf57600080fd5b506001546101e3906001600160a01b031681565b6040516001600160a01b039091168152602001610157565b34801561020757600080fd5b504761014d565b6000544210156102595760405162461bcd60e51b8152602060048201526016602482015275165bdd4818d85b89dd081dda5d1a191c985dc81e595d60521b60448201526064016100b4565b336000908152600260205260409020546102b55760405162461bcd60e51b815260206004820152601a60248201527f43616e74207769746864726177207a65726f2062616c6163652100000000000060448201526064016100b4565b33600090815260026020526040908190205490517fbf2ed60bd5b5965d685680c01195c9514e4382e28e3a5a2d2d5244bf59411b93916102ff914290918252602082015260400190565b60405180910390a13360008181526002602052604080822054905181156108fc0292818181858888f1935050505015801561033e573d6000803e3d6000fd5b50565b8082018082111561036257634e487b7160e01b600052601160045260246000fd5b92915050565b60006020828403121561037a57600080fd5b81356001600160a01b038116811461039157600080fd5b939250505056fea2646970667358221220a37a5102c4dbd31b2fc2661b104d6b13d9e1e7e99e777d7dfc6f1b6ef8df389f64736f6c63430008110033",
  "linkReferences": {},
  "deployedLinkReferences": {}
}